:020000040800F2
:1000000000000520D9170008F5160008F7160008AB
:10001000F9160008FB160008FD1600080000000095
:1000200000000000000000000000000071830008D4
:10003000FF16000800000000118400087584000805
:10004000291800082918000829180008291800088C
:10005000291800082918000829180008291800087C
:10006000291800082918000829180008291800086C
:10007000291800082918000829180008291800085C
:10008000291800082918000829180008291800084C
:10009000291800082918000829180008291800083C
:1000A000291800082918000829180008291800082C
:1000B000291800082918000829180008291800081C
:1000C000291800082918000829180008291800080C
:1000D00029180008291800082918000829180008FC
:1000E00029180008291800082918000829180008EC
:1000F00029180008291800082918000829180008DC
:1001000029180008291800082918000829180008CB
:1001100029180008291800080117000829180008E4
:1001200029180008291800082918000829180008AB
:10013000291800082918000829180008291800089B
:10014000291800082918000829180008291800088B
:10015000291800082918000829180008291800087B
:10016000291800082918000829180008291800086B
:1001700029180008291800082918000800000000A4
:10018000291800082918000829180008291800084B
:10019000291800082918000829180008291800083B
:1001A0000D17000829180008191700082918000859
:1001B000291800082918000829180008291800081B
:0801C0002918000829180008A5
:1001D00001F0FF01102A2BDB10F0070F08D010F8F8
:1001E000013B013A8B422DD010F0070F42B3F6D1FC
:1001F000F0B441EA012141EA014122F007047FF015
:1002000000070023F0E80256083C85EA010586EA6B
:10021000010685FA47F5A3FA87F586FA47F6A5FAA7
:1002200087F68EB9EED1F0BC01F0FF0102F00702B3
:1002300032B110F8013B013A83EA010313B1F8D15E
:100240000020704701387047002D06BF354603383F
:10025000073815F0010F07D1013015F4807F02BF78
:10026000013015F4C03F0130F0BC0138704700BFC9
:1002700081F0004102E000BF83F0004330B54FEA57
:1002800041044FEA430594EA050F08BF90EA020FC4
:100290001FBF54EA000C55EA020C7FEA645C7FEA57
:1002A000655C00F0E2804FEA5454D4EB5555B8BF7A
:1002B0006D420CDD2C4480EA020281EA030382EAEB
:1002C000000083EA010180EA020281EA0303362D7D
:1002D00088BF30BD11F0004F4FEA01314FF4801C50
:1002E0004CEA113102D0404261EB410113F0004F62
:1002F0004FEA03334CEA133302D0524263EB430319
:1003000094EA050F00F0A780A4F10104D5F1200EB6
:100310000DDB02FA0EFC22FA05F2801841F1000111
:1003200003FA0EF2801843FA05F359410EE0A5F1E5
:1003300020050EF1200E012A03FA0EFC28BF4CF016
:10034000020C43FA05F3C01851EBE37101F00045CC
:1003500007D54FF0000EDCF1000C7EEB00006EEBD9
:100360000101B1F5801F1BD3B1F5001F0CD3490863
:100370005FEA30004FEA3C0C04F101044FEA4452BA
:1003800012F5800F80F09A80BCF1004F08BF5FEA41
:10039000500C50F1000041EB045141EA050130BD21
:1003A0005FEA4C0C404141EB0101013C28BFB1F533
:1003B000801FE9D291F0000F04BF01460020B1FA7E
:1003C00081F308BF2033A3F10B03B3F120020CDA51
:1003D0000C3208DD02F1140CC2F10C0201FA0CF02F
:1003E00021FA02F10CE002F11402D8BFC2F1200C94
:1003F00001FA02F120FA0CFCDCBF41EA0C0190404A
:10040000E41AA2BF01EB0451294330BD6FEA040492
:100410001F3C1CDA0C340EDC04F11404C4F120027D
:1004200020FA04F001FA02F340EA030021FA04F38F
:1004300045EA030130BDC4F10C04C4F1200220FAE6
:1004400002F001FA04F340EA0300294630BD21FA24
:1004500004F0294630BD94F0000F83F4801306BFEA
:1004600081F480110134013D4EE77FEA645C18BFDE
:100470007FEA655C29D094EA050F08BF90EA020F75
:1004800005D054EA000C04BF1946104630BD91EA6D
:10049000030F1EBF0021002030BD5FEA545C05D170
:1004A0004000494128BF41F0004130BD14F58004AF
:1004B0003CBF01F5801130BD01F0004545F0FE4123
:1004C00041F470014FF0000030BD7FEA645C1ABF58
:1004D000194610467FEA655C1CBF0B46024650EA8F
:1004E000013406BF52EA033591EA030F41F40021BB
:1004F00030BD00BF90F0000F04BF0021704730B541
:100500004FF4806404F132044FF000054FF0000115
:1005100050E700BF90F0000F04BF0021704730B5D6
:100520004FF4806404F1320410F0004548BF4042AB
:100530004FF000013EE700BF42004FEAE2014FEA00
:1005400031014FEA02701FBF12F07F4393F07F4FDB
:1005500081F06051704732F07F4208BF704793F0DE
:100560007F4F04BF41F40021704730B54FF46074F1
:1005700001F0004521F000411CE700BF50EA0102F4
:1005800008BF704730B54FF000050AE050EA01029D
:1005900008BF704730B511F0004502D5404261EB0D
:1005A00041014FF4806404F132045FEA915C3FF44E
:1005B000D8AE4FF003025FEADC0C18BF03325FEAEB
:1005C000DC0C18BF033202EBDC02C2F1200300FA9C
:1005D00003FC20FA02F001FA03FE40EA0E0021FAC1
:1005E00002F11444BDE600BF70B54FF0FF0C4CF4AF
:1005F000E06C1CEA11541DBF1CEA135594EA0C0F61
:1006000095EA0C0F00F0DEF82C4481EA030621EA9B
:100610004C5123EA4C5350EA013518BF52EA0335D6
:1006200041F4801143F4801338D0A0FB02CE4FF088
:100630000005E1FB02E506F00042E0FB03E54FF0B8
:100640000006E1FB03569CF0000F18BF4EF0010EB0
:10065000A4F1FF04B6F5007F64F5407404D25FEAAC
:100660004E0E6D4146EB060642EAC62141EA55515F
:100670004FEAC52040EA5E504FEACE2EB4F1FD0CA1
:1006800088BFBCF5E06F1ED8BEF1004F08BF5FEA1F
:10069000500E50F1000041EB045170BD06F00046D1
:1006A00046EA010140EA020081EA0301B4EB5C047E
:1006B000C2BFD4EB0C0541EA045170BD41F4801176
:1006C0004FF0000E013C00F3AB8014F1360FDEBF9B
:1006D000002001F0004170BDC4F10004203C35DA77
:1006E0000C341BDC04F11404C4F1200500FA05F3FA
:1006F00020FA04F001FA05F240EA020001F000429B
:1007000021F0004110EBD37021FA04F642EB060110
:100710005EEA430E08BF20EAD37070BDC4F10C043A
:10072000C4F1200500FA04F320FA05F001FA04F2FE
:1007300040EA020001F0004110EBD37041F10001EA
:100740005EEA430E08BF20EAD37070BDC4F12005F5
:1007500000FA05F24EEA020E20FA04F301FA05F25D
:1007600043EA020321FA04F001F0004121FA04F205
:1007700020EA020000EBD3705EEA430E08BF20EAD5
:10078000D37070BD94F0000F0FD101F0004640000F
:1007900041EB010111F4801F08BF013CF7D041EA91
:1007A000060195F0000F18BF704703F00046520095
:1007B00043EB030313F4801F08BF013DF7D043EA66
:1007C0000603704794EA0C0F0CEA135518BF95EA1C
:1007D0000C0F0CD050EA410618BF52EA4306D1D1A3
:1007E00081EA030101F000414FF0000070BD50EAC2
:1007F000410606BF1046194652EA430619D094EA4C
:100800000C0F02D150EA013613D195EA0C0F05D135
:1008100052EA03361CBF104619460AD181EA030189
:1008200001F0004141F0FE4141F470014FF0000041
:1008300070BD41F0FE4141F4780170BD70B54FF0DC
:10084000FF0C4CF4E06C1CEA11541DBF1CEA13555C
:1008500094EA0C0F95EA0C0F00F0A7F8A4EB05043E
:1008600081EA030E52EA03354FEA013100F0888035
:100870004FEA03334FF0805545EA131343EA1263FE
:100880004FEA022245EA111545EA10654FEA0026B3
:100890000EF000419D4208BF964244F1FD0404F56C
:1008A000407402D25B084FEA3202B61A65EB0305C8
:1008B0005B084FEA32024FF480104FF4002CB6EB85
:1008C000020E75EB030E22BFB61A754640EA0C0005
:1008D0005B084FEA3202B6EB020E75EB030E22BF45
:1008E000B61A754640EA5C005B084FEA3202B6EB86
:1008F000020E75EB030E22BFB61A754640EA9C0045
:100900005B084FEA3202B6EB020E75EB030E22BF14
:10091000B61A754640EADC0055EA060E18D04FEAD2
:10092000051545EA16754FEA06164FEAC30343EA72
:1009300052734FEAC2025FEA1C1CC0D111F4801F3F
:100940000BD141EA00014FF000004FF0004CB6E738
:1009500011F4801F04BF01430020B4F1FD0C88BFD7
:10096000BCF5E06F3FF6AFAEB5EB030C04BFB6EBE2
:10097000020C5FEA500C50F1000041EB045170BDD5
:100980000EF0004E4EEA113114EB5C04C2BFD4EB02
:100990000C0541EA045170BD41F480114FF0000E86
:1009A000013C90E645EA060E8DE60CEA135594EA02
:1009B0000C0F08BF95EA0C0F3FF43BAF94EA0C0F05
:1009C0000AD150EA01347FF434AF95EA0C0F7FF47A
:1009D00025AF104619462CE795EA0C0F06D152EACE
:1009E00003353FF4FDAE1046194622E750EA4106B2
:1009F00018BF52EA43067FF4C5AE50EA41047FF4C3
:100A00000DAF52EA43057FF4EBAE12E74FEA410225
:100A1000B2F1E04324BFB3F5001CDCF1FE5C0DD95C
:100A200001F0004C4FEAC0024CEA5070B2F1004FA6
:100A300040EB830008BF20F00100704711F0804FA9
:100A400021D113F13872BCBF01F00040704741F46E
:100A500080114FEA5252C2F11802C2F1200C10FA72
:100A60000CF320FA02F018BF40F001004FEAC12356
:100A70004FEAD32303FA0CFC40EA0C0023FA02F3FA
:100A80004FEA4303CCE77FEA625307D150EA0133D0
:100A90001EBF4FF0FE4040F44000704701F00040A0
:100AA00040F0FE4040F40000704700BF7BB972B9CF
:100AB0000029BEBF00204FF0004106E008BF00281B
:100AC0001CBF6FF000414FF0FF3000F057B8ADF1A0
:100AD000080C6DE904CE002909DB002B1ADB31F08C
:100AE00039F8DDF804E0DDE9022304B07047404244
:100AF00061EB4101002B1BDB31F02CF8DDF804E049
:100B0000DDE9022304B0404261EB4101524263EB54
:100B100043037047524263EB430331F01BF8DDF8A7
:100B200004E0DDE9022304B0404261EB410170477B
:100B3000524263EB430331F00DF8DDF804E0DDE9E8
:100B4000022304B0524263EB4303704753B94AB9DE
:100B5000002908BF00281CBF4FF0FF314FF0FF30C5
:100B600000F00CB8ADF1080C6DE904CE30F0F2FFE6
:100B7000DDF804E0DDE9022304B07047704700BFF0
:100B80000348044B834202D0034B03B1184770471C
:100B90002401002024010020000000000548064B2D
:100BA0001B1AD90F01EBA301491002D0034B03B16B
:100BB0001847704724010020240100200000000095
:100BC00010B5064C237843B9FFF7DAFF044B13B195
:100BD0000448AFF300800123237010BD40030020C0
:100BE00000000000101E030808B5054B1BB10549A5
:100BF0000548AFF30080BDE80840FFF7CFBF00BF56
:100C00000000000044030020101E030801490020DA
:100C100008F0AABDD51C000808B5642006F0BCFF8A
:100C2000FBE7000010B594B01022002102240AA8AE
:100C300030F04AF81422002103A830F045F81D4B8B
:100C4000192108A81A6C42F080521A641B6C03F038
:100C500080530193019B184B1A6842F440421A607A
:100C600001221B6803F440430293029B4FF480333C
:100C7000CDE908234FF48003CDE90E434FF4D87338
:100C8000CDE91244CDE9101305F06EFF05F016FC16
:100C90000F2300200721CDE903344FF4A053CDE901
:100CA00005034FF4805303A8079306F045F914B0E9
:100CB00010BD00BF00380240007000402DE98048A0
:100CC0009BB01022002101250DA84FF010492FF0F4
:100CD000FBFF002404F042FBC74B0DA8ADF83450D5
:100CE0001094CDE90E9304F057FB17230DA88DF84F
:100CF00035508DF83C308DF8425004F04DFB042007
:100D000004F03AFBBFF34F8FBFF36F8FBB4AC2F8BB
:100D10005042BFF34F8FBFF36F8F536943F40033DB
:100D20005361BFF34F8FBFF36F8FC2F88440BFF39F
:100D30004F8FD2F8803043F6E074C3F3C900C3F399
:100D40004E335B0103EA0406014646EA8175013928
:100D5000C2F86052F9D2203B13F1200FF2D1BFF359
:100D60004F8F536943F480335361BFF34F8FBFF309
:100D70006F8F04F059FA0024FFF754FF142200216A
:100D80000DA82FF0A1FF9E4B10219E481A6B012742
:100D90004FF010084FF0030B42F010024FF4805A4E
:100DA000994D4FF004091A631A6B984E02F0100225
:100DB0000292029A1A6B42F002021A631A6B02F054
:100DC00002020392039A1A6B42F001021A631A6B31
:100DD00002F001020492049A1A6B42F040021A6374
:100DE0001A6B02F040020592059A1A6B42F40072E7
:100DF0001A631A6B02F400720692069A1A6B42F09A
:100E000008021A631A6B02F008020792079A1A6B1B
:100E100042F480621A631A6B02F480620892089AA4
:100E20001A6B42F020021A631A6B02F02002099238
:100E3000099A1A6B42F480721A631A6B02F4807278
:100E40000A920A9A1A6B42F080021A631A6B02F035
:100E500080020B920B9A1A6B42F004021A63002272
:100E60001B6B03F004030C930C9B04F0E1FD0122C7
:100E70000821674804F0DCFD01224FF480516548E9
:100E800004F0D6FD0022C021634804F0D1FD002209
:100E90004021624804F0CCFD0DA95A48CDE90D87E8
:100EA000CDE90F4B04F040FC08230DA95848CDE9CB
:100EB0000D37CDE90F4404F037FC0DA95548CDE9B5
:100EC0000DA7CDE90F4404F02FFCC0220DA9524814
:100ED000CDE90D27CDE90F4B04F026FC40220DA9EA
:100EE0004E48CDE90D27CDE90F4B04F01DFC4C48D1
:100EF0004C49848001600762C0E9054404F078FA37
:100F000049492846C5E90014C5E90244C5E90A442F
:100F1000C5E90C4404F00BFB39462846434D04F068
:100F2000BDFB40234FF4C07241493046B460F461C8
:100F3000B462C6E905324FF40062C6E9082A4FF0F0
:100F4000020A0722C6E900140DA9CDF84CA0C6E993
:100F50000398CDE90DA2CDE90F92CDE911BA06F0C3
:100F600041FB29464FF6FF7230460194C5E90078EF
:100F7000C5E9027406F056FB384604F079F92946B3
:100F80004FF6FF723046C5E900A8C5E9027406F0C5
:100F900049FB082329464FF6FF723046C5E900B8E1
:100FA000C5E9023406F03EFB4FF40C734FF6FF72B6
:100FB000294601933046019BAF60EB60C5E900987C
:100FC00006F030FB40F22B7130461A4D06F049FB1B
:100FD0004FF0204343F2D202642040F215261A60FB
:100FE00004F046F9144B154A28462C62C5E9002343
:100FF000C5E9024724E000BF1B00000300ED00E04C
:101000000038024000040240F4040020780300206D
:101010000028024000200240000802400018024060
:10102000340500200030024000B002405C03002084
:10103000400100A0A004002068474020005C004060
:10104000C5E90444C5E9064404F033FE21462846B8
:1010500005F056F8214628463E4D05F077F8342233
:1010600021460DEB02002FF02FFE3B4B28213520AF
:1010700040F2352C2C61AC8685F83640C5E9003449
:101080000923C5E905130B23C5E9070340F21B1328
:101090002846C5E9096340F21D13C5E90244C5E9C4
:1010A0000BC305F0F7F8FF214FF4806E4FF4F07298
:1010B0004FF4887328460D941893ADF864408DF86A
:1010C0006640CDE912140521CDE914E14FF040410D
:1010D000CDE90E24CDE9161222460DA9CDE9103A2C
:1010E00005F0A3F91D481E4B0462C0E90037C0E9B2
:1010F00002984FF4A0634FF01808C0E90644C0E915
:10110000048305F0EFFA03F00FFF03F055FE5C20B7
:1011100004F012F900F05EFB00F088FB00F085FBA4
:1011200006F0ACFC0F4A21460F4806F0E1FC0F4BDD
:101130000F4A214618600F4806F0DAFC0E4B0F4AA2
:10114000214618600E4806F0D3FC0E4B186006F0DE
:10115000AFFCFEE7F803002000680140AC0300206C
:10116000001000A0104E0308190C000874030020A2
:10117000EC4D03083B18000870030020C84D03081D
:10118000953300086C0300200268034B9A4201D19A
:1011900004F05CB8704700BF0010004070470000CA
:1011A0000D4B82B00F216FF001001A6C42F080529B
:1011B0001A641A6C02F080520092009A5A6C42F43F
:1011C00080425A6400225B6C03F480430193019BCC
:1011D00002B004F071B800BF00380240026882B06B
:1011E000084B9A420BD1D3F8302803F5006342F440
:1011F00080521A631B6B03F480530193019B02B06E
:10120000704700BF003002400E4B07B502689A429B
:1012100015D1A3F5F04305215A201A6B42F40002C0
:101220001A6300221B6B03F400030193019B04F07B
:1012300043F85A2003B05DF804EB04F06FB803B034
:101240005DF804FB00B0024010B5A8B004461422BB
:10125000002102A82FF038FD8422002107A82FF0DA
:1012600033FD2268174B9A422AD14FF4803307A8E6
:10127000079305F02DFF08B1FFF790FF124C4FF4D4
:10128000C07201211148236B43F080032363236B59
:1012900003F080030093009B1223CDE90223032374
:1012A000CDE90413042302A9069304F03DFA236C4C
:1012B00043F400032364236C03F400030193019BB4
:1012C00028B010BD005C004000380240001C024005
:1012D000026808B5094B9A420FD1094A8021094892
:1012E000136C23F40003136404F002FB4FF48071C9
:1012F0000448BDE8084004F0FBBA08BD005C0040AB
:1013000000380240001C024070B5ACB00446142204
:10131000002106A82FF0D8FC842200210BA82FF072
:10132000D3FC2268484B9A4240F08C800823052069
:1013300001240B934FF4C07310930223CDE91130B5
:101340004FF400330BA8CDE9154305F0C1FE08B1F9
:10135000FFF724FF3D4B002402250E265A6C06A9F8
:101360003B4842F080625A645A6C02F080620092FC
:10137000009A1A6B42F010021A631A6B02F0100204
:101380000192019A1A6B42F400721A631A6B02F40A
:1013900000720292029A1A6B42F480621A631A6B0C
:1013A00002F480620392039A1A6B42F040021A63BD
:1013B0001A6B02F040020492049A1A6B42F4807293
:1013C0001A631B6B03F480730593059B1023CDE90F
:1013D0000635CDE908440A9604F0A6F94EF6FF73E7
:1013E00006A91C480A96CDE90635CDE9084404F063
:1013F0009BF9F72306A918480A96CDE90635CDE9E9
:10140000084404F091F94FF4805306A91348CDE93C
:1014100006350923CDE908440A9304F085F94FF411
:10142000464306A90E480A96CDE90635CDE908449B
:1014300004F07AF958202246052103F03DFF582098
:1014400003F06CFF2CB070BD006801400038024012
:101450000010024000240240002802400018024010
:1014600000200240142200212DE9F0418AB00446F8
:101470000DEB02002FF028FC22682C4B9A4251D130
:101480002B4B0225032409269A6B4FF0040805A96B
:10149000284842F0020200279A639A6B02F0020287
:1014A0000192019A1A6B42F010021A631A6B02F051
:1014B00010020292029A1A6B42F002021A631A6B2D
:1014C00002F002020392039A1A6B42F008021A63B6
:1014D0001B6B03F008030493049BCDE90585CDE95C
:1014E000084604F021F9402305A91348CDE9053544
:1014F0000A23CDE90774099304F016F905A90E48EB
:101500000996CDE90585CDE9077404F00DF94FF48E
:10151000605305A909480996CDE90535CDE9077459
:1015200004F002F90AB0BDE8F08100BF001000A08D
:10153000003802400010024000040240000C02404B
:10154000026808B50B4B9A4213D10B4A04210B4891
:10155000936B23F00203936304F0CAF94421084813
:1015600004F0C6F94FF460510648BDE8084004F0A5
:10157000BFB908BD001000A00038024000100240B2
:1015800000040240000C0240F0B5002387B0039332
:10159000294B1E68002E4DD10122022703250C2461
:1015A0001A6001A9254B26489A6B42F001029A6302
:1015B0009B6B03F001030093009B4FF68373CDE90F
:1015C0000454CDE9013704F0AFF848F2331301A910
:1015D0001C480594CDE90137CDE9036504F0A4F872
:1015E0004CF2037301A918480594CDE90137CDE900
:1015F000036504F099F84FF63F0301A913480594D9
:10160000CDE90137CDE9036504F08EF8282301A95F
:101610000F480594CDE90137CDE9036504F084F85E
:10162000082301A90B480594CDE90137CDE90365ED
:1016300004F07AF807B0F0BD5805002000380240E9
:101640000010024000180240000C0240001402404A
:10165000001C024000080240214B1A6C42F01002AC
:1016600070B51A6488B01B6C054601A903A803F085
:1016700010030293029B05F00DFD069B4BBB05F08A
:10168000F9FC184E184B336040F2E733F360174B08
:10169000B0FBF3F3013B3046736000233361B3606A
:1016A000B36106F031F9044680B9304605F0F2FF27
:1016B000044658B9362003F031FE0F2D0DD82246CE
:1016C0002946362003F0F8FD094B1D60204608B07E
:1016D00070BD05F0CFFC4000D3E70124F6E700BF62
:1016E000003802405C0500200010004040420F001E
:1016F0003C0000207047FEE7FEE7FEE7FEE770478C
:10170000014806F009B800BF5C050020014804F05C
:101710002FBE00BFF8030020014803F034BF00BF14
:10172000F40400200120704708B52FF081FB162338
:1017300003604FF0FF3008BD08B52FF079FB16238A
:101740000360FEE770B50D4614460E46731B9C42BF
:1017500001DC204670BDAFF3008006F8010BF5E711
:1017600070B50D4614460E46731B9C4201DC2046A4
:1017700070BD16F8010BAFF30080F5E74FF0FF30B6
:1017800070474FF4005300204B60704701207047B2
:10179000002070470B4A0346116810B509B90A4981
:1017A0001160106809490A4C0344091B8B4206D991
:1017B0002FF03EFB0C2303604FF0FF3010BD136091
:1017C000FCE700BFA8050020E06401200000052020
:1017D000000A000070470000DFF834D0002103E069
:1017E0000C4B5B58435004310B480C4B42189A4247
:1017F000F6D30B4A02E0002342F8043B094B9A421D
:10180000F9D303F029FC2FF019FBFFF757FA7047C3
:10181000000005201C7603080000002024010020A1
:1018200040030020DC640120FEE7704708B501F0AA
:101830008BF9BDE8084001F00FB901F087B94068A5
:1018400070474160704700004FF0E022D2F8FC3D45
:1018500043F08073C2F8FC3D054B064AD3F8B01F35
:101860000A43C3F8B02F1A6842F001021A607047A9
:10187000001000E055CEACC5521A02EB5302B2FB89
:10188000F3F07047014B5868704700BF001000E04C
:10189000704710B504460C212DF02FFF204610BDD7
:1018A000036810B51B69044631B19847A2686368A4
:1018B0009B1A0344636010BD9847A060FBE70000DB
:1018C000024B7020024A1360DB68184710000020AA
:1018D000AC050020704710B5044604212DF00DFF23
:1018E000204610BD73B50E4E0D461446336813B92D
:1018F000002002B070BD1B69702098470028F7D007
:101900003368702001AA0DF106015B699847BDF8A4
:10191000043001202B60BDF806302360E9E700BFEA
:10192000AC0500207FB501238DF817204FF47A72A3
:10193000CDE901320DF1170200920A460146054831
:1019400004F026FA10B1034804F008FA07B05DF875
:1019500004FB00BFA00400207FB500230A464FF41B
:101960007A718DF817300123CDE901310DF117019E
:1019700000910146054804F0E5FA10B1034804F06F
:10198000EDF99DF8170007B05DF804FBA0040020F6
:10199000032823D8DFE800F0020B131A104B1021A4
:1019A00010481A68B2FA82F2520904F041B80C4B9E
:1019B00040215A68B2FA82F252090B48F5E7084B07
:1019C00080219A68B2FA82F25209F6E7044B40216C
:1019D0000648DA68B2FA82F25209E6E7704700BFB9
:1019E000B005002000040240000802400018024038
:1019F000032823D8DFE800F0020B131A104B102144
:101A000010481A68003A18BF012204F011B80C4BB4
:101A100040215A68003A18BF01220B48F5E7084BED
:101A200080219A68003A18BF0122F6E7044B402152
:101A30000648DA68003A18BF0122E6E7704700BF9F
:101A4000B0050020000402400008024000180240D7
:101A500003280FD8DFE800F00206090B1021064822
:101A600003F0EBBF40210548FAE78021FBE7402166
:101A70000348F5E7704700BF000402400008024039
:101A80000018024008B5032813D8DFE800F0020A66
:101A90000D0F1021084803F0C5FF431E584258415E
:101AA00008BD40210548F6E78021FBE740210448B6
:101AB000F1E70020F1E700BF000402400008024007
:101AC0000018024070B5084D00240126E0B2FFF76F
:101AD000D9FF18B12B68012B18BF2E6001340435D3
:101AE000052CF3D170BD00BFB0050020012380F8A4
:101AF000781080F8793070470020704741640039D1
:101B0000024B18BF01211970704700BF9B5701207D
:101B100000207047836B0BB10846184770474FF69B
:101B2000FF707047406803689B6918477047000062
:101B300038B5044601F058F9084923682046084D95
:101B4000D3F88C3098470023284684F84A30FFF7B2
:101B50007BFE0123256184F8703038BD000000C091
:101B6000C005002001F0E4B801F0E8B870B501F05C
:101B700065F910490023C1F88430BFF34F8FD1F8C5
:101B8000803043F6E074C3F3C900C3F34E335B0106
:101B900003EA0406024646EA8275013AC1F8745225
:101BA000F9D2203B13F1200FF2D1BFF34F8FBFF3D7
:101BB0006F8F70BD00ED00E001F042B901F094B804
:101BC00001F064BA01F06CBA01F098B810B504469F
:101BD00016F004FB23682046D3F8AC30BDE8104073
:101BE000184715F059BD10B504467C212DF085FD30
:101BF000204610BD90F834100D4B10B590F8784089
:101C00001A788C4209D03AB90A490B4A08881488D4
:101C1000108001220C801A7010BD002AFCD0064AE8
:101C20000449148808880C8010800022F3E700BF64
:101C300094570120925701209057012070B50D460E
:101C4000194635B9094B40F2D221094A09482EF00C
:101C50007FFDC0E90F52003A074B18BF01221A70EE
:101C60000368BDE87040D3F88C3018478B1E03081A
:101C7000C31E0308111F03089A57012008B5094B1A
:101C80001B888B4203D8084B1B88934205D9074B0E
:101C90009E21074A07482EF05BFD074B1980074B32
:101CA0001A8008BD9057012092570120561F030843
:101CB000B91F0308111F03089657012098570120E8
:101CC000034690F87A0018B1586803681B681847F3
:101CD00070470000014608B5034B186801B10121A7
:101CE00016F096FA012008BD9C570120034B0022F4
:101CF0005A609A60024A1A60704700BFC00500200F
:101D00003C4E03080121002208B5084605F0FAFF01
:101D10000A4B186028B90A4B28210A4A0A482EF0B3
:101D200017FD00220421012006F0B6F8074B1860C9
:101D300018B9074B2C21034AF0E708BDD005002055
:101D4000FC1F03084520030874200308CC0500206D
:101D5000CC200308024B4FF0FF31186806F02AB878
:101D6000D0050020014B186806F060B8D0050020AF
:101D7000024B0021186806F01DB800BFD0050020F6
:101D8000FFF7F0BF0023034803491A46006806F036
:101D9000C9B800BFCC0500200400002013B5002303
:101DA000074C01A91A46206806F0FEF84FF0FF33F1
:101DB000002201A9206806F0F7F802B010BD00BFAC
:101DC000CC05002003685B6C18470120704703684E
:101DD0009B6A1847FEE700000E4B82B01A6B42F474
:101DE00000021A631A6B02F400020192019A1A6946
:101DF00042F400021A611A6922F400021A61064BC9
:101E0000064A1A61064A5A614FF08062054B9A6091
:101E100002B0704700380240F4040020B1200008EE
:101E2000D51D000800E100E040F2EF3070470000EF
:101E3000054B4FF080620360044BC3F88820BFF36A
:101E40004F8FBFF36F8F7047544F030800E100E0DE
:101E500010B504464FF45A61FFF7EAFF20462DF013
:101E60004CFC204610BD000008B50A2809D8DFE860
:101E700000F006100E0808080810101010000220CC
:101E800008BD054B9021054A05482EF061FC002055
:101E9000F6E70120F4E700BF0E210308292103081B
:101EA0007421030838B50C46887FFFF7DDFF174B18
:101EB000A58AE28A586342EA054221695A64628B24
:101EC000D963521B1A642568082D0ED19A611A61D4
:101ED00058620F4A207F42EA0062DA61E2681A62C1
:101EE0000C4A5961D9601A6038BD0022D8611A6164
:101EF000E1680A0A4809C1F3C40102F4784200F417
:101F0000FC6002430A439A63034AECE700B00240D4
:101F100009000100012302000123030008B50B287A
:101F20000BD8DFE800F00612100A0A0A0A080808AF
:101F30000808022008BD0520FCE7054B6F21054A73
:101F400005482EF005FC0020F4E70120F2E700BF71
:101F50000E210308CA210308742103082DE9F0416A
:101F600091F81D800C464046FFF7D8FFA77F054635
:101F70003846FFF7D3FF06463846FFF775FFA18ABC
:101F8000628B434B521A1A649A61228B521A1A615D
:101F9000E28A586342EA014221695A646268D9635D
:101FA000DA602068802828D0227F0FD8202866D0C9
:101FB000402864D004281AD045EA0265344BB8455D
:101FC00045F40035DD6160D0324A44E0B0F5807FF1
:101FD00004D0B0F5007FEFD12F4800E02F4840EA51
:101FE0000262DA61E2681A625E62596132E045EAD1
:101FF000026242F40032DA61F6E7A068021DDA629A
:10200000227F45EA026545F40035DD615E62596173
:10201000017841B1012921D0214B4FF48D71214A22
:1020200021482EF095FBDA69418822F47F4201397C
:1020300022F0100242EA01220121DA61144BDA692E
:1020400042F02002DA61DA699206FCD410229A602A
:102050000029B9D0154A1A60BDE8F081B2F1FF013C
:10206000DA69408822F47F4218BF0121013822F04A
:10207000100242EA002242F01002DA61DEE745EA8D
:102080000262034B42F40032B5E742F20132E2E76A
:1020900000B0024001230100090002000A00020012
:1020A000142203082E2203087421030801230200CE
:1020B000024B1B68586803685B6918479C570120EE
:1020C00070B504460A4B0C3000262546602260603D
:1020D0002672667245F8203B294616F0EFF904F5A2
:1020E0005A63EE6024359D42FBD1204670BD00BF8F
:1020F000544F0308034B1A68D207FCD423229A607A
:10210000704700BF00B00240094B5A69D2030AD59C
:10211000BFF34F8F08440029A0EB010204DCBFF39A
:102120004F8FBFF36F8F70472039C3F86822F2E7F3
:1021300000ED00E030B5104C2568ED07FCD42325F8
:102140000904FF2BA56041F001014FF00205656312
:102150006164E0630AD00949656241EA0363E361AF
:10216000074B22626061E060236030BDE561039B44
:10217000A363044BF8E700BF00B002400900010070
:10218000010002000100030030B50F4C2568ED0787
:10219000FCD423251204FF2BA56042F001024FF06E
:1021A000020565636264E063E16008D01B0643F0EA
:1021B0000213E361054B65626061236030BD044B2F
:1021C000E3610123F9E700BF00B002400100020013
:1021D000020002FF30B50B4C2568ED07FCD4232527
:1021E00012041B06A56042F00102022543F40033ED
:1021F00065636264E063E160E361034B65626061B3
:10220000236030BD00B00240010002004069704709
:1022100090F844007047036B23B9C06A003818BFB8
:10222000012070470120704780687047043010B566
:102230000C460FC884E80F0010BD704708B5034A6C
:1022400040F21221024B03482EF082FA6C2203085E
:1022500002390308C722030810B5044648212DF0AF
:102260004CFA204610BD00002DE9F0431C46436B9C
:10227000ADF51F7D05460E461746002B37D00022D0
:1022800003A8DFF8A890CDE901320DF05BFF4FF411
:10229000F4725021249024A807F007FF3A463146F3
:1022A00024A808F051FE012124A807F0F9FF022319
:1022B00024A88DF8D83008F094F8BDF898322B9AFD
:1022C000BDF89C629342A89F28BF1346419A96424C
:1022D00003EB4308A7EB430728BF1646479B9E42E4
:1022E00009D824A807F0FEFF24A807F02BFF0DF55E
:1022F0001F7DBDE8F083012201A924A808F0BAF8E7
:102300006B6B03EB0800984201D83C44E6E7597830
:102310009A78C90009EA022201F4FC610A4313F821
:10232000031B42EAD10224F8022BECE700F8FFFF7E
:102330000A4A02600022C0E90522C0E90722C0E97A
:102340000922C0E90B22C0E90D12C0E90F2280F872
:102350004420C0E90322C0E901227047A44F0308CA
:1023600010B40C4611461A46036B3BB1036C806BEC
:10237000E41A20445DF8044B2EF0AEBCC06AF8E7C6
:10238000036B10B573B1036C826BC91A5318525C9E
:1023900098785C780004DB7840EA0420104340EA37
:1023A000036010BDC36A5858FBE7036B43B1036C6D
:1023B000C91A836B5A18585C527840EA0220704759
:1023C000C36A585A7047000070B50446006B0D464A
:1023D0001646D8B1E36B934208D209230D4A652112
:1023E0000D4884F844300D4B2EF0B2F90368DB68D9
:1023F0009847206B3246A16B03681B69984710B958
:102400000D2384F84430A06B256470BDE06A084455
:10241000FBE700BF3C230308C72203082923030866
:102420002DE9F843436904462BB9234BAA21234ADB
:1024300023482EF08DF908228169FFF7C5FFA169B5
:1024400043F2300646F2643704312046FFF798FF26
:10245000A3691844A36A00F108029A4206D3012333
:1024600000206361236AA361BDE8F88363690930D2
:102470000822013320F0010120466361A161FFF7CA
:10248000A3FFD4F8189020464946FFF78EFF09F1C4
:10249000020180462046FFF788FF09F10401054646
:1024A0002046FFF76DFFB045D2D1BD42D0D1002804
:1024B000CED00120D8E700BF7E230308C72303083E
:1024C000C72203082DE9F04F0446ADF51F7D8A466B
:1024D0001646816908229846FFF776FFA7692046CD
:1024E000391DFFF74DFF07F108010246054620465A
:1024F000FFF76AFF636B074633B93C4B40F2AB1101
:102500003B4A3C482EF024F9002203A8CDE90132D1
:102510000DF018FE4FF4F4725021249024A807F017
:10252000C4FD2A46394624A808F00EFD012124A83E
:1025300007F0B6FE022324A88DF8D83007F051FF2B
:10254000BAF90250479BAB4229D3BAF900904FEA3F
:102550004808BAF804702B9B08FB05664F44BAF88C
:102560000250DFF894B03FB29F4228BF1F46BAF82E
:10257000063009EB490A1D44419B2DB29D4228BFFC
:102580001D46479B9D4210D824A807F0ABFE24A807
:1025900007F0D8FD01200DF51F7DBDE8F08F012269
:1025A00001A924A807F066FFCCE7012201A924A80D
:1025B00007F060FF626B49465244B94202F10302E0
:1025C00001D34644DDE712F8020C12F8013CC000CA
:1025D0000BEA032300F4FC60034312F8030C43EA04
:1025E000D00326F811300131E7E700BFFA230308D2
:1025F00050240308C722030800F8FFFF01290368DD
:1026000038BF0121DB6A70B50D4604469847A842E1
:1026100004D223682046DB6A984705466B1EE669AC
:102620001022204606EB031606F10801FFF7CCFE48
:1026300006F110012046FFF7A3FE236A043B034482
:10264000C4E9055370BD0000002148222DE9F04186
:102650000446816180F84410FFF7B6FEA6690423A2
:10266000624A31462046FFF77BFE40B10323604AB1
:10267000F22184F844305F4B5F482EF069F806F190
:10268000080104235D4A2046A161FFF769FE30B1CD
:102690000423574AFA2184F84430594BECE706F1F9
:1026A0000C010423574A2046A161FFF759FE074653
:1026B00038B105234E4A40F2011184F84430524BA0
:1026C000DAE706F110012046FFF75AFE054620B969
:1026D0004E4B40F20711464ACEE706F11408042398
:1026E0004B4A20464146FFF73BFE002849D00623CF
:1026F00084F844300423474A06F118012046FFF7C6
:102700002FFE00283FD0072384F844304544424F31
:102710000C2220462946FFF757FE05F10806042340
:102720003A4620463146FFF71BFE94F84430002815
:1027300048D0002B48D1A36AAB4249D805F10C031D
:1027400004352046A3612946FFF71AFE3044294686
:1027500060622046FFF714FE0644042220463146FC
:10276000FFF732FE04232D4A31462046FFF7F8FDDD
:10277000002838D10123E6616361A3692362BDE8C3
:10278000F0810127B6E7002FC0D006F120012046D6
:10279000FFF7F6FD4FF47A7306F13001B0FBF3F06A
:1027A00060602046FFF7ECFD06F14001A060204686
:1027B000FFF7E6FD06F14401E0602046FFF7E0FD8B
:1027C0002061A3E7002BB9D00A2384F84430D6E770
:1027D000291D2046FFF7D4FD85190C2220462946E5
:1027E000FFF7F2FD99E70B23EFE700BFAA240308E8
:1027F000C8240308AF240308C7220308F5240308EC
:10280000FA24030812250308172503082D250308B9
:10281000392503083E2503084325030848250308F6
:10282000C0E90A2100220263FFF70EBF10B50023A2
:1028300004460846E3620B6821639B689847A062E0
:102840002046BDE81040FFF7FFBEF0B4069FBDF87C
:102850001050BDF8146032B12BB10495CDE9056775
:10286000F0BCFFF701BDF0BC704700002DE9F04F50
:102870009946436985B004460F4690462BB9294BCB
:102880007721294A29482DF063FF08228169FFF743
:102890009BFDA66920463146FFF787FDB11C8346A4
:1028A0002046FFF782FD311D82462046FFF768FD76
:1028B00006F10801A36A05460A189A4226D243F295
:1028C00030039B4517D146F264339A4513D190B13A
:1028D0000246A1612046FFF777FD0E9B01462A467E
:1028E0002046CDF80080CDE901933B46FFF7ADFFD0
:1028F000636901336361A3692B4405B9083301336C
:10290000626A23F001039342A36109D101230120EC
:102910006361236AA36180F0010005B0BDE8F08F18
:102920000020F8E77E2303084D250308C72203088B
:10293000012070470C2070470C2303FB0100083076
:1029400070470C2303FB01000830704701207047DB
:102950004FF4A36070474FF4A36303FB01000830FA
:1029600070474FF4A36303FB010008307047012058
:1029700070471020704700EB01100830704700EBE3
:10298000011008307047084600F026BF034B10B511
:102990000446036014F0D8FB204610BD4C500308D9
:1029A00010B50446FFF7F2FF142120462CF0A5FED7
:1029B000204610BD034B10B50446036014F0C4FB61
:1029C000204610BD1850030810B50446FFF7F2FF6B
:1029D0004FF4A46120462CF090FE204610BD00006C
:1029E000034B10B50446036014F0AEFB204610BD47
:1029F000E44F030810B50446FFF7F2FF1821204604
:102A00002CF07BFE204610BD084B10B50446036039
:102A100000F24C50FFF7BAFF04F12C00FFF7CAFF99
:102A200004F11400FFF7DCFF204610BD80500308BE
:102A300008B50248FFF7E8FF08BD00BFA414002056
:102A400010B50446FFF7E0FF4FF4D86120462CF0A4
:102A500054FE204610BD00002DE9F34100F032FD88
:102A60000024054600F032FD234601462246284652
:102A700000941DF0F5FD274B274A2046274D1A608C
:102A800001F088FF264B274A27489A601DF050FD29
:102A90002B68BFF35B8FDB0735D428462CF02FFE65
:102AA00088B3224C224B04F2645604F1140004F162
:102AB0002C0804F24C5723606060C4F80880E7607B
:102AC000266114F043FB1B4B4046636114F03EFB50
:102AD000194B3846E36214F039FB184B04F5AC602F
:102AE000C4F84C3502F002F9224604F5AC613046D8
:102AF00001F0CAFF304600F06FFE11482DF046FE8F
:102B000028462CF008FE0F4802B0BDE8F041FFF760
:102B10000FB800BF0058012050060020A01400206C
:102B2000700600205406002008000020A414002095
:102B300080500308E44F0308185003084C50030862
:102B4000312A0008D405002070470000014814F025
:102B50000CBE00BFD405002070B5244E244B254C7C
:102B60003046254D2360FFF7ABFA284622F08AFE57
:102B700022481BF0F9FA224B00224FF480712148C1
:102B80001A8683F858205A6683F870205A67DC60EA
:102B9000C3E912121C49C3E91A121C4999671C495E
:102BA0000B604FF4F07101801A4801804FF4887176
:102BB0001948C3E90422C3E90622C3E90822C3E98C
:102BC0000A22C3E90E22C3E91022C3E91422C3E991
:102BD0001722C3E901650180104883F83420018081
:102BE0000F490A700F4A1A6070BD00BFFC06002032
:102BF000644E03089C140020700600205406002038
:102C0000D4050020905701200100000100000101BF
:102C10009C57012096570120925701209857012078
:102C2000945701207C4E03080148FFF701B900BF0B
:102C3000FC0600200020704781807047C1807047EB
:102C400001817047418170477047704770477047F6
:102C5000704710B4C4880368121B84885B6D091B1D
:102C600012B25DF8044B09B218474FF6FF73838127
:102C70004FF0FF3303621368C36110607047002098
:102C800070478B88838001207047704780F826103A
:102C9000704790F826007047002210B5B1F908403F
:102CA000B1F90A10028042808480C18010BD0022E8
:102CB000028042808280C28070470177704780ED39
:102CC000080A704780F82410704780F82510704774
:102CD00001207047983070478C30704784307047BF
:102CE0007047704770470000034B902283F85A23C7
:102CF00083F85823704700BF00E100E0094A0A4901
:102D0000D3680A48C3F30A03013B9BB20B801169E5
:102D1000C1F30A01013901801364536B43F00103CD
:102D20005363704700680140661B0020641B00204D
:102D3000014BD3F8AC00704700680140024B012200
:102D4000C3F8AC105A62704700680140124A5369D8
:102D5000DB0370B51ED50023C2F88430BFF34F8F5C
:102D6000D2F8803043F6E074C3F3C900C3F34E33A6
:102D70005B0103EA0406014646EA81750139C2F89F
:102D80007452F9D2203B13F1200FF2D1BFF34F8FD1
:102D9000BFF36F8F70BD00BF00ED00E070473823B8
:102DA000002201FB0333C25490F838300BB9036C96
:102DB00083647047704780F84C10704710B5044624
:102DC00058212CF09AFC204610BD10B504462C2149
:102DD0002CF093FC204610BD10B50446BC212CF00D
:102DE0008CFC204610BD000038B5044614F0A9FC48
:102DF00023685D6E1AF040F801462046A847236814
:102E0000084A2046D3F888500023A2F57F31A8470E
:102E1000054B064A5A60064A1A649A644FF4FF2228
:102E20005A6438BD00F807C0281C0020801C002010
:102E300000F40BC014F06CBC14F076BC14F032BC7F
:102E400014F0A1BD90F8252012B103685B69184702
:102E50007047000008B531B1044B40F29711044AA5
:102E600004482DF075FC90F8390008BDA82503082A
:102E7000BC2503084927030810B531B1064B40F2C1
:102E80009111064A06482DF063FC4068114603681C
:102E9000BDE810401B6B1847A82503088B270308C3
:102EA0004927030808B529B1034B7A21034A04488E
:102EB0002DF04EFC006908BDA82503083C29030835
:102EC0004927030808B529B1054B8321054A06485F
:102ED0002DF03EFC41618160C0E9063208BD00BFB3
:102EE000A8250308F42A03084927030810B5044657
:102EF00029B1274BA421274A27482DF029FC052A70
:102F000034D8DFE802F003292F34393E40680368E3
:102F10001B69984750B34FF0FF31606D04F096FE87
:102F20000023012294F83E1084F83B3084F83920C5
:102F3000A360636101B1226284F83E306362E36A98
:102F40002BB90123206D84F83A3004F06FFF606DD7
:102F5000BDE8104004F0AABE002380F8393084F8A0
:102F60003E3003E0036200238360436110BD0362CF
:102F7000002383604361F2E7002380F839300123A6
:102F8000EDE7003B18BF012380F83D30EEE700BFBE
:102F9000A8250308B32C03084927030890F8252027
:102FA0001AB190F8242002B11860704770B5044639
:102FB000164629B1314BE721314A32482DF0C8FB82
:102FC00090F8393033B1304B1B6893F86B2043696C
:102FD00013444361E36A002B4DD0E169D4E9053223
:102FE0005343A2684A43934220D2236A002B42D023
:102FF0004FF0FF31606D04F029FE236A0BB100230E
:10300000E362E36AFBB90125606D04F04FFE94F8BA
:1030100039300BB9236A3BB1E36A2BB90123206D28
:1030200084F83A3004F002FF284670BD94F84C0052
:103030000028DDD09B1AB3FBF1F2994298BF02F150
:10304000FF326262D4E7002294F83C50A36230461B
:10305000E262E2682261A2680132A26033633368EF
:103060005B699847002DCED194F83D30002BCBD131
:1030700084F83950C8E70125C9E700BFA82503082F
:103080008A2E0308492703089C570120034B4FF061
:1030900080629A604FF080729A60704700E100E0B1
:1030A000084B4FF08062C3F88820BFF34F8FBFF307
:1030B0006F8F4FF08072C3F88820BFF34F8FBFF33C
:1030C0006F8F704700E100E038B5034690F8380094
:1030D00038BB01229860D8609A634FF480725861BF
:1030E0009A874FF4F0729861D861186258629862BA
:1030F000D8621863586383F83E00CA864FF488721A
:1031000081F834000A8708639A6C186102F5FF247D
:10311000D3E9101529448C420AD9084B5821084A92
:1031200003E0084B40F2F511074A08482DF010FB68
:103130001A6302F57F329C645A6338BDE831030894
:10314000283203082E3003085E300308492703089D
:10315000002370B5124E05468380124B036033681E
:1031600093F858200AB1D86C00B998680368DB6AF4
:1031700098473368B0FA80F4D86C640930B10368BA
:10318000DB6A9847002808BF44F001042CB9064BBD
:103190002C21064A06482DF0DBFA284670BD00BFF8
:1031A0009C57012094500308CE3303082C340308A5
:1031B0006534030870B5244E3568BFF35B8F15F096
:1031C00001053FD130462CF09AFA00283AD01F4C26
:1031D0001F4B04F134002561E584A562A585C4E98F
:1031E0000035C4E902551BF01EFA04F1580016F030
:1031F00065FD184B2046A365174B40F8843BFFF74D
:10320000A7FF164B1648C4F884302433C4F89050F6
:10321000C4F88C306423C4F89C50C4F8A850C4E9A6
:1032200028350023C4F8AC30C4F8B030C4F8B4304A
:10323000C4F8B8300B4BC4F898302DF0A7FA3046DC
:103240002CF069FA014870BD681B00206C1B00203F
:10325000EC6A0308B45003082C510308A06A030861
:10326000E52C0008806A030810B5144C236823B3CA
:10327000134B144A1B6C11888B4213D1124B1988C3
:1032800003F000F9226892F86A30013382F86A305C
:10329000FEF778FD206814F0A1FF0020BDE8104083
:1032A000FEF776BB03F0EEF8206803681B6A9847C8
:1032B0000020BDE81040FEF79BBB10BD9C570120CD
:1032C00000680140661B0020641B00202DE9F743C5
:1032D00004464FF4707894F83A304FF0FF31002BE9
:1032E00031D0606D04F0B2FC276BA36ABB4200D101
:1032F000676B266A656856B32B68314628465B6A59
:1033000098470023236284F83B30606D04F0CEFCC4
:103310002B684FF4F0723946CDF8008028465E697C
:103320004FF48873B0474FF0FF310646606D04F0EC
:103330008DFC94F83B30E3B1002384F83B30606DA2
:1033400004F0B4FCC7E7206D04F034FDC3E7636A02
:10335000002BDAD02B682846D3E909939847616A95
:1033600001442846C847A368626A66621344A360A2
:10337000CBE7E7625EB12B6828469B6A9847013825
:103380000023E06084F83C6084F83A30D7E70120FD
:10339000F6E70000014808B5FFF798FF281C002059
:1033A0000368042270B504465E6A00230D46B047E8
:1033B0004FF0FF31606D04F049FC382303FB0542F8
:1033C000D16A09B10021D16203FB0545012385F8CB
:1033D0003B30002385F83930606DBDE8704004F063
:1033E00065BC38B500EB810304460D4611465868AC
:1033F0000368DB68984729462046FFF7D1FF38BDB0
:1034000070B50D461146044600EB8502506802680F
:1034100096681A46B04729462046FFF7C1FF70BD9F
:1034200038B5164900251648FEF782FF154C164B95
:1034300001202A46294623604FF48073A564A387A0
:1034400084F84C0084F83E50C4E91055C4E9145582
:10345000C4E90155C4E90355C4E90555C4E9075554
:10346000C4E90955C4E90B55C4E90D5504F04AFCFB
:103470002065284604F0A8FB606538BDC81C002004
:10348000801C0020281C002078510308704710B5CC
:10349000044604212CF031F9204610BD012908B55D
:1034A00006D0022908D059B901F0C0FA006808BD59
:1034B00001F0BCFA4068FAE701F0B8FA8068F6E774
:1034C0000020F4E700487047C45103080B20704700
:1034D00013B5002451B1036801AA01948DF803408B
:1034E0009C680DF10303A04702B010BD0846FBE73E
:1034F000C0897047008A7047C088704780887047CD
:10350000807A00F07F007047807AC0097047002001
:10351000704700009FED010A704700BF00000000E7
:10352000704710B5044608212CF0E7F8204610BD7E
:103530007047704700F598730868496803C370477F
:10354000704770474160704770477047064BC0F83E
:103550004801C0F84C310023C0F8503100F5A27387
:10356000C0F84031704700BF0D36000801230372D8
:103570007047704710B441680346C2689B68541096
:1035800001EB6200D20748BF0A595DF8044B48BFFF
:10359000D35818470346406830B19A681AB9D868BA
:1035A00000F0010070470120704710B504460C215F
:1035B0002CF0A3F8204610BD10B5044610212CF0C5
:1035C0009CF8204610BD10B504464FF4AE712CF0A7
:1035D00094F8204610BD10B519F04EFC0368BDE804
:1035E0001040DB6B184710B50446D0F8400158B1C5
:1035F0000368DB68984738B1D4F8400103689B68DA
:1036000098470023C4F8403110BD00002DE9F14F68
:10361000D0E9556A0746B06803681B6A9847B0F559
:10362000A36F05D2444BA321444A45482DF090F89E
:10363000706803681B6A98470F2803D8414BA42180
:103640003E4AF2E7F06803681B6A98470B2803D8E4
:103650003D4BA521394AE8E7DFF8F49019F00CFC5E
:10366000043019F047FCD9F8000010B10368DB689A
:103670009847D9F8000010B103681B689847DFF835
:10368000D480D8F8000010B103685B699847D7F878
:103690003C0110B103685B689847D8F8000010B18E
:1036A00003681B689847D7F83C0110B103689B6812
:1036B0009847F06800214FF0000B03685B6A984759
:1036C000224B0446C0F804B080F808B059460360A5
:1036D000B06803685B6A9847054601F015FA7068A0
:1036E000594603685B6A98470646294601F0E4F9A3
:1036F000331DC7F83C612846C9F80040C8F800509F
:10370000CAF800302B68C6F808A0DB68EE6398475B
:10371000336830461B689847214628461BF0E6FB75
:10372000236820461B699847236820465B6901B0DF
:10373000BDE8F04F184700BFC734030855350308EC
:1037400021360308683603080B370308245303089F
:10375000E4570120E0570120044B1B6893F85820E0
:103760000AB1D86C00B99868704700BF9C57012017
:10377000F8B5174604460E4619F08EFC124B00258C
:103780001C602946114B2360114BC4E95135114B84
:103790001868C4E953550368C4E94F559B68C4E9E8
:1037A00055769847284601F0F5F8FFF7D5FF23F046
:1037B000BCFEFFF7D1FF23F033FFFFF7CDFF23F06F
:1037C0003BFF2046F8BD00BFF0570120D052030850
:1037D000B85203089C570120064BC0F84801C0F8B6
:1037E0004C310023C0F8503100F5A273C0F84031CD
:1037F000704700BF0D360008406A7047806A704706
:1038000070478B88C069DB0A0A6850F823001044AF
:10381000704710B50446BAB1107B68B1537BD27AB9
:103820001B0203F4E0631A43236A03EB82031A8842
:103830008A4202D193F9020010BD05D80138043341
:1038400080B20028F3D1F7E70020F5E710B5044671
:103850002C212BF052FF204610BD000030B58BB05C
:103860000446BDF860500895BDF85C5007959DF87A
:10387000505006959DF84C5005959DF8485004957C
:103880009DF8445003959DF8405002959DF83C509A
:103890000195BDF8385000951AF082FF064B20467E
:1038A0002360159BE361169B2362199B63621A9B3D
:1038B000A3620BB030BD00BF48530308806A704755
:1038C0007047704770477047704730B585B00368E0
:1038D000044601816D460146D3F884303C342846C5
:1038E000984795E8070084E8070005B030BD30B57B
:1038F00085B00368044641816D460146D3F88430A3
:103900003C342846984795E8070084E8070005B04E
:1039100030BD0022028042808280C280704780F8E1
:1039200036107047036870B504461B6B1546984700
:103930002368204629465B6EBDE87040184700208A
:103940007047806C7047704770477047704770478A
:1039500070477047704770477047704770477047AF
:1039600070477047704770477047704700F556734F
:10397000994270B504460D4602D10368DB6A984748
:1039800004F52C739D4203D1236820461B6B984796
:1039900004F5FE739D4203D1236820465B6B984774
:1039A00004F588739D4205D1236820469B6BBDE8D2
:1039B0007040184770BD90F82C304BB100F16C028C
:1039C0001268C2653BB100F174031B68036670475F
:1039D00000F16802F4E700F17003F6E790F82C308C
:1039E00023B100F184031B688366704700F18003F4
:1039F000F9E730B444680346C2689B68551004EB8D
:103A00006200D20748BF625930BC48BFD35818473C
:103A10000346406830B19A681AB9D86800F00100CE
:103A200070470120704790F82D3080F86E30704755
:103A300090F82D3080F8A43080F85A30704790F814
:103A40002D3080F85A30704790F82D3080F89A3039
:103A500080F85C30704790F82D3080F85C3070470B
:103A600090F82D3080F8D23080F8983080F86430AB
:103A7000704790F82D3080F8983080F864307047A7
:103A800090F82D3080F86430704701463C3091F852
:103A90002C3013B16A3116F005BE6831FBE710B562
:103AA0000446703094F82C303BB104F16E0116F0EE
:103AB000F9FD2046FFF7E9FF10BD04F16C01F6E7C0
:103AC00008B590F82C303BB100F1E8031B68C0F852
:103AD000CC30FFF7E4FF08BD00F1E403F6E7014650
:103AE000343091F82C3013B1623116F0DBBD603107
:103AF000FBE708B590F82C303BB100F1B0031B6830
:103B0000C0F89430FFF7EBFF08BD00F1AC03F6E717
:103B100010B504467C3094F82C303BB104F17A01A6
:103B200016F0C0FD2046FFF746FF10BD04F17801F6
:103B3000F6E710B5044634212BF0DFFD204610BD1A
:103B400010B5044688212BF0D8FD204610BD10B5D5
:103B500004464C212BF0D1FD204610BD10B5044683
:103B60006C212BF0CAFD204610BD10B504469C21E7
:103B70002BF0C3FD204610BD10B50446EC212BF000
:103B8000BCFD204610BD10B5044664212BF0B5FDE8
:103B9000204610BD10B50446B4212BF0AEFD2046E2
:103BA00010BD10B5044678212BF0A7FD204610BDAE
:103BB00010B50446A8212BF0A0FD204610BD10B57D
:103BC000044610212BF099FD204610BD10B5044687
:103BD0004FF4A3612BF091FD204610BD08B5FFF70F
:103BE00031F908BD10B50446006B50B10368DB68BD
:103BF000984730B1206B21460368BDE810409B68B0
:103C0000184710BD90F82C3010B504466BB1B0F9D0
:103C10003830B0F93A209A4208D10368D3F8883096
:103C2000984700232387E38E638710BD0133038702
:103C3000FBE70000036870B55E6B0446114B8DB264
:103C40001B682BB9104B6C21104A11482CF080FDD9
:103C50001049828D0988914203D80F4B6D210B4A80
:103C6000F3E713F812200D4B1B6853F8220003688A
:103C70001B6B9847291A3346204609B2BDE87040AD
:103C8000184700BFF4570120AE370308F037030888
:103C90002B380308F857012072380308FC5701201D
:103CA00000224FF0FF318260C0E9002170470368B5
:103CB00070B504461B6B1546984723682046294675
:103CC0005B6BBDE8704018470B882DE9F041A0F808
:103CD0006C30044613889046B0F90850A0F86E3056
:103CE00010461CF0D1FCB4F90A30074605EBD57537
:103CF00003EBD3734046C5F34F0507EBD777C3F308
:103D00004F061CF0F5FC00EBD070A5EB6701A6EBAD
:103D1000600204F1700009B212B2FFF7C8FF236815
:103D20002046D3F88C30BDE8F04118470B882DE9C8
:103D3000F041A0F87830044613889046B0F9085056
:103D4000A0F87A3010461CF09FFCB4F90A30074600
:103D500005EBD57503EBD3734046C5F34F0507EB71
:103D6000D777C3F34F061CF0C3FC00EBD070A5EB74
:103D70006701A6EB600204F17C0009B212B2FFF702
:103D800096FF23682046D3F88C30BDE8F0411847F1
:103D9000036870B504469B6B154698472368204618
:103DA0002946DB6BBDE87040184738B504461D4610
:103DB000FFF77DFFBDF9102029462046FFF7E8FFF9
:103DC00038BD70B50C46054608461CF05DFC06463D
:103DD00020461CF08DFC314602462846FFF7D8FFEE
:103DE00070BD0B88014610B5A0F8683004461388F2
:103DF00021F86A3FFFF7E5FF23682046D3F88C30AF
:103E0000BDE8104018470B88014610B5A0F8603097
:103E10000446138821F8623FFFF7D3FF236820464A
:103E2000D3F88C30BDE81040184700000022C0E9EC
:103E30000122C0E90322C0E90522C0E907224FF4AC
:103E400080728284014A0260704700BFB053030849
:103E500010B50446262200212CF036FF2046FFF73D
:103E6000E5FF044B20462360FF2384F8263000231F
:103E7000A36210BD406C030838B504460D462622E7
:103E800000212CF021FF2046FFF7D0FF064B2046F3
:103E9000294623602B88E384FF2384F8283016F01A
:103EA00001FC204638BD00BF106D030810B5044664
:103EB000262200212CF008FF2046FFF7B7FF0A4B0F
:103EC0004FF47F0220462360084BA3624FF6FF7336
:103ED000A3850023C4E90C324FF0FF322387E3634C
:103EE000C4E9102310BD00BFB06B0308A85203083B
:103EF000094A4FF47F410260002281858262026399
:103F0000C0E90122C0E90322C0E90522C0E9072275
:103F100040F2011282847047A8540308036880F8B5
:103F20002C10D3F88C30184738B50D460979044663
:103F300090F82C3089B98BB123682046D3F88830AB
:103F4000984700232387A38E638718F095FF2146A7
:103F50000430BDE8384019F05DB863B1B1FA81F1C1
:103F600020464909FFF7DAFF236820465B69984736
:103F70002B79002BE0D018F07FFF21460430BDE8FC
:103F8000384018F09EBF70B50D460979044690F888
:103F90002C6009B916B170BD002EFCD0B1FA81F1C8
:103FA00020464909FFF7BAFF236820465B69984716
:103FB000002EF0D02B79012BEDD123682046D3F8C9
:103FC0008830BDE87040184770B50D79044690F808
:103FD0002C303DB93BB123682046D3F88830BDE88A
:103FE000704018475BB1B5FA85F120464909FFF7E3
:103FF00095FF236820465B699847002DEBD070BD84
:1040000070B50D4690F83430044690F82C102A799B
:10401000A2F1020CDCF1000646EB0C06012A80F846
:10402000346012D09BB981F00101FFF777FF23685C
:1040300020465B6998472B79012B08D123682046DD
:10404000D3F88830BDE870401847002BF6D070BD1B
:104050002DE9F04F044699B000251AF09BFD264645
:10406000B84B04F16C0A4FF6FF7704F19808E5634A
:1040700046F8403B3046FFF7EBFE04F1C40916A9B1
:104080005046ADF85870FFF7F7FE16A94046ADF858
:104090005870FFF7F1FE484604F5C07BFFF706FFB6
:1040A000A94BC4F80C51C4F8C43004F58873184601
:1040B0000393FFF71DFFA54B16A9ADF85870C4E98F
:1040C0005135A34BC4F8103104F5A67318460D936F
:1040D000FFF7D2FE2A4629460D98A4F87871A4F875
:1040E0007A71FFF7E4FD0D99039813F041F8994BAD
:1040F00016A95846C4F81031A4F87C71A4F87E7152
:10410000ADF85870FFF7B8FE5946039813F030F831
:1041100004F5D67B904B5846C4F81031FFF7C6FE25
:1041200059460398C4E97D5513F022F804F5FE734F
:1041300034222946184604932CF0C6FD0498FFF754
:10414000D7FE864B16A9ADF85870C4F8FC3104F5BB
:104150000C7318460E93FFF78FFE2A4629460E98D9
:10416000A4F85C72A4F85E72FFF7A1FD0E990498A2
:1041700012F0FEFF7A4BC4F8FC3104F518731846B0
:104180000C93FFF793FE0C990498C4E9AA5512F01A
:10419000EFFF04F52C7334222946184605932CF0C2
:1041A00093FD0598FFF7A4FE6E4BC4F8B03204F5FA
:1041B000397318460F93FFF74BFE6B4B2A4629467F
:1041C000C4F8E4320F98C4F81053A4F81453C4E9A7
:1041D000C655C4E9C855FFF76AFD0F99059812F056
:1041E000C7FF624B16A9A4F82873C4F8B03204F5CF
:1041F0004B73A4F82A731846ADF858700693FFF76E
:104200003BFE069B271D0598194612F0B1FF04F5E9
:10421000567318460693FFF76BFE554B84F88C5384
:10422000C4F8583304F5647318460B93FFF73EFE49
:104230000B990698C4E9F65512F09AFF04F57873C5
:1042400018460793FFF732FE04F585631846089376
:10425000FFF72CFE04F58E6318460993FFF726FE40
:1042600004F5976318460A93FFF720FE414B2A4650
:104270003046C4F8083529463F4BC4F80C45C4F80D
:1042800010354FF48873C4F8145500934FF4F0734D
:10429000FFF78BFD4FF07F4331463846A36610AEE3
:1042A00012F066FF2A4650462946FFF700FD5046A9
:1042B00016A9ADF8585016F0F5F951463846DFF812
:1042C000D4A012F055FF5022404640F22511FFF7CE
:1042D000EEFC4FF00503404616A9ADF8583016F035
:1042E000E1F94146384612F043FF5A23682240F272
:1042F000251148460093982304F5A068FFF755FD63
:10430000D4F8C43049463046D3F88430C4F8F4A019
:10431000A4F8F850984704F5807396E8070083E8FE
:104320000700164B1B682BB9154B6021154A164820
:104330002CF00EFA154B1B88012B2DD8144B612144
:10434000104AF4E75C5A0308185403081E000F00D3
:1043500044550308E4550308885603082C570308FE
:10436000CC5703086C580308A86C030808590308C5
:10437000A8590308445A03086D390008F45701206E
:10438000AE370308B03803082B380308F85701206C
:1043900072380308DEDEDEFFDC4B0121186800F016
:1043A00035FBDB4A0346032140461CF0B4F8C4F851
:1043B0000C81DFF8748316A94846ADF85C50CDF83F
:1043C000588016F013F84946384612F0D1FE4FF0E7
:1043D000121315A84FF00401C4F844314FF0030341
:1043E00016AAADF8581001460398ADF85430FFF7FF
:1043F000F8FC2A4629460D984FF03809FFF757FC7C
:104400000DF1540C4FF00600012316AA6146ADF8D9
:1044100058000398ADF85430FFF756FC0DF1580ED4
:10442000BC4B4FF0020C58467146C4F88431ADF8CD
:104430005CC0CDF8588015F0D9FFB4F91A21584660
:10444000B4F91811FFF7A4FC0D226FF01B015846B8
:10445000CDF80090C823FFF7A8FCDFF8D0B2AE4B30
:104460000398C4E97DB3FFF72BFB04F5A162C823D1
:104470000398C4F8402132210D92B122CDF800906A
:10448000FFF793FC0399384612F072FE4FF0080EC6
:104490000A2316AA15A90498ADF854E0ADF85830CF
:1044A000FFF7B1FC2A4629460E98FFF700FC4FF0B3
:1044B00003020C98ADF85C2016AACDF8588011467E
:1044C00015F094FFB4F90622B4F904120C98FFF722
:1044D0005FFC0C226FF001010C98CDF80090642372
:1044E000FFF763FC8C4B0498C4F8A8B24FF0070B9D
:1044F000C4F8AC32FFF7FDFA0D9A64230498C4F8AF
:104500002C2223214022CDF80090FFF74EFC049985
:10451000384612F02DFE29462A460F98CDF8009015
:104520006423FFF742FC7D4B4FF005020598C4F869
:104530001C3303F56023A4F8142303F20143C4F8E9
:1045400018A3C4F82033764BC4F82433D4F8B0321F
:10455000D3F88C3098474FF0020C0598ADF854C052
:104560000DF1580CADF858B062460DF1540C61468F
:10457000FFF7DCFB0D9A6B4BA521C4F8E02240222B
:10458000C4F8303364230598CDF800904FF0240927
:10459000FFF70BFC0599384612F0EAFD0DF1580CB7
:1045A0004FF0080E0B986146CDF85880ADF85CE0EE
:1045B00015F01CFFB4F96223B4F960130B98FFF7F0
:1045C000E7FB2A4629460B989823CDF80090FFF781
:1045D000ECFB514B0698C4F8DC33C4F8D8A3FFF7C2
:1045E000FDF90D9B29220698C4F8883340F2251165
:1045F0009823CDF80090FFF7D8FB0699384612F0C3
:10460000B7FD2B2207982D21FFF751FB0799304664
:10461000C4F810A4A4F8145415F04EFC04F21C4382
:1046200096E8070083E807004FF004010798CDF8EB
:104630005880ADF85C1016A915F0D8FE07993846D9
:1046400012F096FD2B220898AB21FFF730FB08995A
:104650003046C4F858A4A4F85C5415F02DFC04F2BC
:10466000644396E8070083E807004FF0050216A9A7
:104670000898ADF85C20CDF8588015F0B7FE089981
:10468000384612F075FD9C2209986721FFF70FFB51
:1046900009993046C4F8A0A4A4F8A45415F00CFC61
:1046A00004F2AC4396E8070083E807004FF00600E9
:1046B00016A9CDF85880ADF85C00099815F096FE63
:1046C0000999384612F054FD14220A9840F21B1141
:1046D000FFF7EDFA0A993046C4F8E8A4A4F8EC54C0
:1046E00015F0EAFB04F2F44396E8070083E80700BC
:1046F00016A90A98CDF85880ADF85CB015F076FE92
:1047000038460A9912F034FD204611E00058012085
:104710002F4A030888001400099AE7FF403A28FF4F
:104720006D675FFF22001300A8520308464646FF4C
:1047300019B0BDE8F08F00BF7047000030B5174DCD
:104740008FB02C68BFF35B8F14F0010422D1284690
:104750002AF0D5FFF0B13F23162211490993114BDE
:1047600011480893114B0A94079301230194049371
:10477000CDE905430423CDE902430F23CDE90B44E2
:1047800000931223FFF76AF809482BF0FFFF284631
:104790002AF0C1FF04480FB030BD00BF48240020FC
:1047A000206D0790D87503084C240020E475030899
:1047B000394700087047000030B5174D8FB02C689E
:1047C000BFF35B8F14F0010422D128462AF097FF33
:1047D000F0B13F23012211490993114B114808936D
:1047E000114B0A940594CDE906430423CDE9033225
:1047F0001B230F2200932023CDE90B44CDE9014474
:10480000FFF72CF809482BF0C1FF28462AF083FF58
:1048100004480FB030BD00BF78240020546E0790CC
:10482000DC7503087C240020E8750308B547000800
:104830007047000030B5164D8FB02C68BFF35B8F0A
:1048400014F0010421D128462AF059FFE8B1114B98
:10485000012211490893114B11480594CDE90643F3
:104860000423CDE9033250230E2200935923CDE9CE
:104870000B44CDE90944CDE90144FEF7EFFF0948B7
:104880002BF084FF28462AF046FF05480FB030BDC4
:10489000A8240020E0750308286F0790EC75030832
:1048A000AC240020314800080020704700207047E9
:1048B0000EB403B503AB002153F8042B019319F098
:1048C00073FA02B05DF804EB03B070470CB407B59F
:1048D00004AB53F8042B019319F066FA03B05DF8AA
:1048E00004EB02B070470000436C10B5044673B38C
:1048F000038F2BB9184BC521184A19482BF028FFF4
:10490000C38E00EB43035B8C0BB31BF04DF8238F7E
:10491000012B03D8134BCB21134AEEE7E28E40F66E
:104920003F10531C9BB2092B194688BFA3F10A0103
:1049300004EB4101498C814209D10A2B04EB42026C
:1049400028BF0023508C04EB430358845184204635
:10495000BDE810401AF02ABFFB38030804390308E9
:10496000AF390308F9390308073A03081AF0E7BE1C
:1049700010B586B002AC84E806001A460AAB2146A0
:1049800005930193099B0093089B17F013FE06B053
:1049900010BD000038B518BB124B13481C681349F2
:1049A000B4B1226822440260626822440A60A268AC
:1049B00014440F4B00221A8000F038F8054600F02E
:1049C00033F80C4B1C600C4B1D600C4B188007E03F
:1049D0000B4B03600B4B0B600B4B1C68002CE8D19E
:1049E00038BD00BFE4240020DC240020D8240020AF
:1049F000E0240020F4570120FC570120F857012043
:104A000014700790EC6F0790D0700790044B1B68F0
:104A100053F82100034B1B6803EB4000704700BFB5
:104A2000D8240020DC2400200A207047004870476A
:104A3000E824002010B5054CFFF7FCFE2060FFF7CE
:104A4000BBFE6060FFF77AFEA06010BDE824002086
:104A500010B5002404600C6014601C6010BD704729
:104A600010B504464FF4AE712AF047FE204610BD43
:104A700010B50446D0F8580100F03BF92046BDE8D7
:104A8000104018F095BA000010B50446FEF770FE0D
:104A9000014B2046236010BDA05A0308704704381C
:104AA0007047704710B5044610212AF026FE2046B4
:104AB00010BDA0F10400F5E70022C1608260024A47
:104AC0000260183242607047F45A030870470000D1
:104AD000034B10B504460360FEF746FF204610BDA9
:104AE0001C5B030810B50446FFF7F2FF4FF4A36107
:104AF00020462AF002FE204610BD036880F82D10E3
:104B0000D3F890301847000010B50446FFF7A0FA1C
:104B1000014B2046236010BD1C5B030870B5D0F824
:104B2000C43000F1C4060446DB6F304698471BF0E2
:104B3000DFF932283DDC451C1E4A032104F5A06044
:104B40002B461BF0E8FC304619F059FA94F83D3139
:104B5000642B0BD104F58876FF213046FFF7CDFF9B
:104B60000123304684F8343119F049FA322D20D12E
:104B700004F5FE76002564213046FFF7BEFF294686
:104B8000304684F82052FFF7C9F9304604F52C76F8
:104B900019F035FA64213046FFF7AFFF3046294659
:104BA00084F8D452FFF7BAF93046BDE8704019F0E6
:104BB00026BA70BD8D470308F8B5D0F8C43000F1AF
:104BC000C4060446DB6F304698471BF091F9002875
:104BD00038DB451E1C4A032104F5A0602B461BF060
:104BE0009AFC304619F00BFA94F82932642B16D14E
:104BF00004F5FE76FF2101273046FFF77EFF3046A1
:104C000004F52C7684F8207219F0F9F9FF2130466A
:104C1000FFF773FF304684F8D47219F0F0F9002DD5
:104C200010DC04F5887564212846FFF766FF002133
:104C3000284684F83411FFF771F92846BDE8F8409A
:104C400019F0DDB9F8BD00BF8D4703082DE9FF411C
:104C500000F1380705466C46384605F1740615F034
:104C6000C5FB2B8939462046A5F84030B5F90A80A6
:104C700015F022F994E8070086E807003946204637
:104C8000A5F8428015F018F994E8070086E80700B7
:104C900004B0BDE8F081000037B5D0F8F43000F57D
:104CA00056750F4A0446694693420E4B03BF0E4A9F
:104CB00000930923009316BF0823C0F8F420C0F81E
:104CC000F4202846ADF80430FFF7C0FF04F1C4001B
:104CD00019F095F9284603B0BDE8304019F08FB9B6
:104CE000DEDEDEFFA8520308099AE7FF0022026019
:104CF0007047704700B54FF4807295B04FF08071E7
:104D000003460C9205220F91012106920022019187
:104D10000B92139200920B48CDE90312CDE90D22BC
:104D2000CDE91122102206A902924FF480020592C9
:104D30006A4601F080FD003818BF012015B05DF80B
:104D400004FB00BFF424002000B54FF4807395B03D
:104D500041F2883217480C93062306A906930023D4
:104D6000CDE90D330F930B931393CDE9113301F07C
:104D70001EFDE0B9022301224FF4800104900D488A
:104D8000CDE900331023CDE9023205236A46CDE98F
:104D900005134FF0807306A90F9341F2883301F099
:104DA0004AFD003818BF012015B05DF804FB012052
:104DB000FAE700BFF424002000B54FF4807391B0EF
:104DC0004FF040720E480893EB2302A902934FF470
:104DD000406309934FF4005305930023CDE90A3251
:104DE0000A220F9307926A46CDE90D33CDE90033CD
:104DF00001F072FD003818BF012011B05DF804FB0E
:104E0000F4240020454B01219A6B42F00202F0B5D8
:104E10009A638DB09A6B0924414D042702F0020277
:104E2000002628460092009A9A6942F002029A618E
:104E30009A6922F002029A611A6B42F002021A6326
:104E40001A6B02F002020192019A1A6B42F00202FE
:104E50001A631A6B02F002020292029A1A6B42F073
:104E600008021A631A6B02F008020392039A1A6B83
:104E700042F008021A631A6B02F008020492049AC4
:104E80001A6B42F010021A631A6B02F010020592BC
:104E9000059A1A6B42F008021A6340221B6B03F05A
:104EA00008030693069B0223CDE907230323CDE9DC
:104EB00009130A2307A90B9300F036FC07A928461B
:104EC000079709960B9400F02FFC4FF4006307A995
:104ED0000B941D440793284600F026FC4FF48053A2
:104EE00007A9284607930B9400F01EFC07A90D485C
:104EF00007970B9400F018FC4FF4005307A92846BD
:104F00000B94079300F010FC32460F215C2000F058
:104F1000D3F95C2000F002FA0DB0F0BD0038024079
:104F20000004024000100240F0B5494C91B0494BDA
:104F30002046236001F028FC054610B1012011B085
:104F4000F0BD01462046FFF75DFF012604234FF028
:104F50008077C4E901631023E36097FAA7F3B3FAFB
:104F600083F32046013B23614FF4A063C4E9075556
:104F7000C4E9053501F0B6FB0028DFD14FF4807598
:104F800066230B9041F28832079002A90F90089592
:104F90000293CDE90900CDE90D00204601F007FCA0
:104FA00008B10420CBE7992341F2883202A92046B8
:104FB000029301F0FCFB0028F3D141F28830FFF7A7
:104FC00099FE0028EDD18523079041F2883202A98D
:104FD000089502930B97CDE90900CDE90C60CDE966
:104FE0000E00204601F0E3FB0028DAD141F28832BE
:104FF0000DF10701204601F054FD0028D1D1FFF743
:10500000A3FE0028CDD18123F022029392FAA2F2CE
:105010000A219DF80730B2FA82F2204603F00F030E
:1050200001FA02F202A9134341F288328DF80730E7
:1050300001F0BDFB0028B4D141F288320DF1070127
:10504000204601F0CFFC00283FF479AFA9E700BF6C
:10505000F4240020001000A00F490020D1F888306F
:1050600043F47003C1F888300C4B1A6842F0010217
:105070001A6098601A6822F0847222F480321A60F2
:10508000074A5A601A6822F480221A60D8604FF0EA
:1050900000638B60704700BF00ED00E00038024005
:1050A000103000247047002070470000002337B5FF
:1050B0008DF807300C4B1A780AB901221A700324B4
:1050C000C5B2013CA8212846FCF746FC14F0FF04B9
:1050D0008DF807009DF80730DBB201D0512BF0D1DD
:1050E0009DF8070003B030BD4225002013B5002411
:1050F0000221C0B28DF80740FCF72EFC8DF80700A6
:105100009DF8073003F00F038DF807309DF8073046
:10511000052B01D98DF807409DF80720034B9DF81A
:1051200007005A7000229A7002B010BD422500207C
:105130002DE9F74F2F4C15464FF000080F46A37886
:1051400062788DF807809A424DD9092B4ED803EB2F
:1051500043035B00DBB2191D03F1030B03F1060AE5
:105160000533C9B25FFA8BFB5FFA8AFA5FFA83F8FC
:10517000C6B2DFF884903046FCF7EEFB8DF80700EE
:105180009DF8073059463046A9F80030FCF7E4FB9B
:105190008DF8070051469DF807303046B9F80020D9
:1051A0001B0203F4706313433B80A9F80030FCF743
:1051B000D3FB8DF8070041469DF807303046A9F82B
:1051C0000030FCF7C9FB8DF807009DF80730B9F8EF
:1051D00000201B0203F470631343A9F800302B80F6
:1051E000A3780133A37003B0BDE8F08FC246C34675
:1051F0004146BDE742250020402500200122A42190
:10520000C0B2FCF78FBB0022A421C0B2FCF78ABB5E
:10521000FFF7F9BF70470000024B1A780AB9012264
:105220001A70704742250020074A032008B513680A
:1052300043F48073136000F02DF80020FCF70CFAA3
:10524000FBF7AEFF002008BD003C0240034A044BC0
:1052500011681B780B441360704700BF482500207D
:1052600038000020014B1868704700BF4825002017
:1052700038B50446FFF7F6FF0546631C1EBF044B16
:105280001B78E418FFF7EEFF431BA342FAD338BDA7
:105290003800002007490302CA6803F4E06322F4DF
:1052A000E0621204120C134343F0BF6343F4003373
:1052B000CB60704700ED00E0164B30B5DC68C4F3FE
:1052C0000224C4F10703251D042B28BF0423062D47
:1052D0004FF0FF358CBF033C002405FA03F3002890
:1052E00005FA04F521EA030322EA050203FA04F3AE
:1052F00043EA02034FEA0313DBB206DB00F160402E
:1053000000F5614080F8003330BD00F00F00024A24
:105310001354F9E700ED00E014ED00E0002807DB8E
:105320004109012300F01F00024A834042F8213066
:10533000704700BF00E100E000280CDB43090122B8
:1053400000F01F0004492033824041F82320BFF3BE
:105350004F8FBFF36F8F704700E100E0BFF35F8FA7
:10536000044B5A6A22F480325A620022C3F8942015
:10537000704700BF00ED00E0064B40F00100C3F8AD
:1053800094005A6A42F480325A62BFF34F8FBFF3DF
:105390006F8F704700ED00E04378144AC2F89830F0
:1053A000D2F8A03023F00103C2F8A0304368C2F85D
:1053B0009C30C37A017B1B0643EA017301780B43DF
:1053C000817A43EAC143417B43EA8143817B43EADB
:1053D0004143C17B43EA0143417A43EA0123017A15
:1053E00043EA4103C2F8A030704700BF00ED00E07F
:1053F00010B5044608B9012010BD437F03F0FF0239
:1054000013B90277FBF7EAFE022363772379E3B946
:105410002368134A5A619A6822F018029A606279E6
:105420002368D2B94FF0FF321A6100209A6861698F
:1054300022F060020A43A1699A609A6822F0800211
:105440000A439A6001236377D6E7D4E90212204623
:1054500000F008F80028E2D0CDE72269E4E700BFB9
:10546000B71DC104CB0710B50DD51F23013B1DD3BC
:1054700021FA03F4E407F9D5102A13D0102A04D82E
:105480003AB1082A10D001200BE0182AFBD1062BD4
:10549000F9D800684161836823F0180313438360DF
:1054A000002010BD072BF3E70F2BF1E7102AE5D101
:1054B000E9E770B50446866DFFF7D4FE054694F81B
:1054C0003530022B06D0802301206365002384F849
:1054D000343070BD23681A6822F016021A605A69C7
:1054E00022F080025A61226C0AB9A26C1AB11A68C1
:1054F00022F008021A601A6822F001021A6023687A
:10550000186810F0010007D1E26D3F239340B360AB
:10551000012384F83530D9E7FFF7A4FE401B0528A6
:10552000EDD920230320636584F83500CEE710B55C
:10553000044620B390F8393003F0FF021BB980F81D
:105540003820FBF761FE02236168002084F83930BF
:1055500023681A6822F440320A43A1681A605A6B21
:1055600022F007020A43E1685A631A6C6FF30D02D6
:105570000A431A640123E06384F8393010BD012026
:10558000FCE770477047036870B55E6804461D68A5
:10559000F20714D5E90512D51A6822F480721A6050
:1055A000C26B42F00102C26301229A60042380F8B8
:1055B0003930002380F83830436903B19847B20688
:1055C00016D5AB0414D523681A6822F400521A6069
:1055D00020229A60E36B43F00203E363042384F820
:1055E0003930002384F8383063690BB1204698477E
:1055F000300716D5290514D523681A6822F40062ED
:105600001A6008229A60E36B43F00403E363042307
:1056100084F83930002384F8383063690BB12046B0
:10562000984772070BD56B0509D5236820461A6881
:1056300022F480621A6004229A60FFF7A2FFB0078A
:1056400014D5A90512D523681A6822F400721A60CD
:1056500002229A60E36BE363012384F8393000236C
:1056600084F8383023690BB120469847F20613D5E9
:10567000EB0411D5236820461A6822F480521A6080
:1056800010229A60E36BE363012384F8393000232E
:1056900084F83830FFF776FF70BD0000F0B590F861
:1056A000382003460220012A2BD0012283F839003A
:1056B0000E011C4F83F8382003EB0112D2E907409A
:1056C000556A44EA0040093C012C96BF05F07F4230
:1056D00040EA056010431A68A1B9516A012C01EA39
:1056E000070141EA000151629969916103D8596A41
:1056F00021F07F4191620122002083F8392083F854
:105700003800F0BDD169012C01EA070141EA00012E
:10571000D16103EB060189691161ECD825F07F4561
:105720001562E8E7F0FFFC002DE9F74F0023DFF8F2
:10573000BC916C4A01240D689C4004EA0506AC4308
:1057400040F0B7804D6803274FEA430E05F003048D
:1057500007FA0EFC671E6FEA0C0C012F34D887681D
:1057600007EA0C08CF6807FA0EF747EA08078760D0
:10577000476827EA0608C5F300179F4047EA08076D
:105780004760C768022C07EA0C088F6807FA0EF713
:1057900047EA0807C76019D14FEAD30803F0070AA0
:1057A0004FF00F0B00EB88084FEA8A0AD8F82070F8
:1057B0000BFA0AFB27EA0B0B0F6907FA0AF747EA0D
:1057C0000B07C8F8207001E0032CDAD1076804FA4F
:1057D0000EF415F4403F07EA0C0744EA070404609E
:1057E00067D0D9F8444023F0030703F0030C4FF0CF
:1057F0000F0E44F4804407F180474FEA8C0CC9F83F
:10580000444007F59C37D9F844400EFA0CFE04F4E6
:1058100080440194019CBC6824EA0E0E324CA042E4
:105820004ED004F58064A0424CD004F58064A042C0
:105830004AD004F58064A04248D004F58064A042B8
:1058400046D004F58064A04244D004F58064A042B0
:1058500042D004F58064A04240D004F58064A042A8
:105860003ED004F58064A04214BF0A24092404FA3F
:105870000CF415F4801F44EA0E04BC606FEA0607BE
:1058800094680CBF3C40344315F4001F9460D46806
:105890000CBF3C40344315F4003FD46054680CBF47
:1058A0003C403443ED035460146854BF3C403443DF
:1058B00014600133102B7FF43DAF03B0BDE8F08FCF
:1058C0000024D4E70124D2E70224D0E70324CEE762
:1058D0000424CCE70524CAE70624C8E70724C6E762
:1058E0000824C4E7003C01400000024000380240A8
:1058F0002DE9F04F00224FF0010A4FF00F084FF052
:10590000030B464C0AFA02FC3CEA01030CEA0106CE
:105910006CD122F0030502F0030705F18045BF00BA
:1059200005F59C3508FA07F9AB6809EA030E3C4B0C
:10593000984260D003F5806398425ED003F580639F
:1059400098425CD003F5806398425AD003F5806397
:10595000984258D003F58063984256D003F580638F
:10596000984254D003F58063984252D003F5806387
:10597000984250D003F58063984214BF0A2309234C
:10598000BB40734513D1236823EA06032360636891
:1059900023EA06036360E36823EA0603E360A3687F
:1059A00023EA0603A360AB6823EA0903AB60530054
:1059B0000568D6080BFA03F300EB860625EA030513
:1059C000056002F00705376AAD0008FA05F527EA19
:1059D00005073762C56825EA0305C560456825EAFD
:1059E0000C054560856825EA030383600132102AAF
:1059F00088D1BDE8F08F0023C2E70123C0E702236E
:105A0000BEE70323BCE70423BAE70523B8E7062370
:105A1000B6E70723B4E70823B2E700BF003C014024
:105A2000000002400369194214BF012000207047A2
:105A30000AB1816170470904FBE7436901EA030287
:105A400021EA030141EA02418161704703689A69D2
:105A5000910701D500229A629A69D20703D49A6904
:105A600042F001029A61704730B5039DC1F309010C
:105A700004682B43606843EA0243054A0B4342EA49
:105A8000555223F0004320EA02000343636030BD17
:105A9000FF63FF0303682DE9F0419C6905460F464B
:105AA000164614F010046FD000241022A046DA61CC
:105AB0002B689A69900661D4B8F1000F35D044F094
:105AC000040401202E68B369D90505D54FF480720E
:105AD00044F001040120F2615A0505D54FF48062BB
